{
  "contractName": "Level_1_Brute_Force_Solution",
  "abi": [
    {
      "inputs": [],
      "name": "guess",
      "outputs": [
        {
          "internalType": "uint8",
          "name": "",
          "type": "uint8"
        }
      ],
      "stateMutability": "view",
      "type": "function"
    },
    {
      "inputs": [
        {
          "internalType": "uint8",
          "name": "n",
          "type": "uint8"
        }
      ],
      "name": "keccak256Uint",
      "outputs": [
        {
          "internalType": "bytes32",
          "name": "",
          "type": "bytes32"
        }
      ],
      "stateMutability": "pure",
      "type": "function"
    }
  ],
  "bytecode": "0x60806040527f04994f67dc55b09e814ab7ffc8df3686b4afb2bb53e60eae97ef043fe03fb82960001b60005534801561003757600080fd5b5061017c806100476000396000f3fe608060405234801561001057600080fd5b50600436106100365760003560e01c8063149264ea1461003b578063a28b749a14610080575b600080fd5b61006a6004803603602081101561005157600080fd5b81019080803560ff1690602001909291905050506100a4565b6040518082815260200191505060405180910390f35b6100886100dd565b604051808260ff1660ff16815260200191505060405180910390f35b600081604051602001808260ff1660ff1660f81b8152600101915050604051602081830303815290604052805190602001209050919050565b600080600090505b6101008160ff1610156101415760005481604051602001808260ff1660ff1660f81b81526001019150506040516020818303038152906040528051906020012014156101345780915050610143565b80806001019150506100e5565b505b9056fea2646970667358221220badf488ba3e75ea2387935e8e80bfd5eda6c17afc4cebba5e551771d619c760c64736f6c63430006000033",
  "source": "pragma solidity 0.6.0;\n\ncontract Level_1_Brute_Force_Solution {\n    bytes32 answerHash = 0x04994f67dc55b09e814ab7ffc8df3686b4afb2bb53e60eae97ef043fe03fb829;\n    \n    function guess() public view returns(uint8) {\n      for (uint8 i = 0; i < 256; i++) {\n        if (keccak256(abi.encodePacked(i)) == answerHash) {\n            return i;\n        }\n      }\n    }\n\n    function keccak256Uint(uint8 n) public pure returns(bytes32) {\n      return keccak256(abi.encodePacked(n));\n    }\n}",
  "sourcePath": "/Users/codeme/code/hack-extropy/src/contracts/Solutions/Level_1_Brute_Force_Solution.sol",
  "compiler": {
    "name": "solc",
    "version": "0.6.0+commit.26b70077.Emscripten.clang"
  },
  "schemaVersion": "3.4.3",
  "updatedAt": "2021-12-07T12:35:15.271Z",
  "devdoc": {
    "methods": {}
  },
  "userdoc": {
    "methods": {}
  }
}