{
  "contractName": "Level_0_Practice",
  "abi": [
    {
      "inputs": [],
      "stateMutability": "nonpayable",
      "type": "constructor"
    },
    {
      "inputs": [],
      "name": "levelComplete",
      "outputs": [
        {
          "internalType": "bool",
          "name": "",
          "type": "bool"
        }
      ],
      "stateMutability": "view",
      "type": "function",
      "constant": true
    },
    {
      "inputs": [
        {
          "internalType": "uint8",
          "name": "n",
          "type": "uint8"
        }
      ],
      "name": "completeLevel",
      "outputs": [],
      "stateMutability": "payable",
      "type": "function",
      "payable": true
    }
  ],
  "bytecode": "0x608060405234801561001057600080fd5b5060008060006101000a81548160ff021916908315150217905550602a600060016101000a81548160ff021916908360ff160217905550610107806100566000396000f3fe60806040526004361060265760003560e01c80634d193b6d14602b5780635e50f9d1146057575b600080fd5b348015603657600080fd5b50603d6085565b604051808215151515815260200191505060405180910390f35b608360048036036020811015606b57600080fd5b81019080803560ff1690602001909291905050506097565b005b6000809054906101000a900460ff1681565b600060019054906101000a900460ff1660ff168160ff16141560ce5760016000806101000a81548160ff0219169083151502179055505b5056fea264697066735822122079f8716ebbbf66b0fcee1e7ec6416665d748e2007ff5733b5b61dfedeee742b564736f6c63430006000033",
  "source": "pragma solidity 0.6.0;\n\ncontract Level_0_Practice {\n\t\n\tbool public levelComplete;\n\tuint8 answer;\n\n\tconstructor() public {\n        levelComplete = false;\n        answer = 42;\n    }\n\n    function completeLevel(uint8 n) public payable {\n        if (n == answer) {\n            levelComplete = true;\n        }\n    }\n\t\n}",
  "sourcePath": "/Users/codeme/code/hack-extropy/src/contracts/Levels/Level_0_Practice.sol",
  "compiler": {
    "name": "solc",
    "version": "0.6.0+commit.26b70077.Emscripten.clang"
  },
  "schemaVersion": "3.4.3",
  "updatedAt": "2021-12-07T12:43:55.067Z",
  "networkType": "ethereum",
  "devdoc": {
    "methods": {}
  },
  "userdoc": {
    "methods": {}
  }
}