{
  "contractName": "Level_1_Brute_Force",
  "abi": [
    {
      "inputs": [],
      "stateMutability": "nonpayable",
      "type": "constructor"
    },
    {
      "anonymous": false,
      "inputs": [
        {
          "indexed": false,
          "internalType": "bytes32",
          "name": "_guess",
          "type": "bytes32"
        }
      ],
      "name": "Guess",
      "type": "event"
    },
    {
      "inputs": [],
      "name": "answer",
      "outputs": [
        {
          "internalType": "bytes32",
          "name": "",
          "type": "bytes32"
        }
      ],
      "stateMutability": "view",
      "type": "function",
      "constant": true
    },
    {
      "inputs": [],
      "name": "levelComplete",
      "outputs": [
        {
          "internalType": "bool",
          "name": "",
          "type": "bool"
        }
      ],
      "stateMutability": "view",
      "type": "function",
      "constant": true
    },
    {
      "inputs": [
        {
          "internalType": "uint8",
          "name": "n",
          "type": "uint8"
        }
      ],
      "name": "completeLevel",
      "outputs": [],
      "stateMutability": "nonpayable",
      "type": "function"
    }
  ],
  "bytecode": "0x608060405234801561001057600080fd5b5060008060006101000a81548160ff0219169083151502179055507f04994f67dc55b09e814ab7ffc8df3686b4afb2bb53e60eae97ef043fe03fb82960001b60018190555061019c806100646000396000f3fe608060405234801561001057600080fd5b50600436106100415760003560e01c80634d193b6d146100465780635e50f9d11461006857806385bb7d6914610099575b600080fd5b61004e6100b7565b604051808215151515815260200191505060405180910390f35b6100976004803603602081101561007e57600080fd5b81019080803560ff1690602001909291905050506100c9565b005b6100a1610160565b6040518082815260200191505060405180910390f35b6000809054906101000a900460ff1681565b600081604051602001808260ff1660ff1660f81b81526001019150506040516020818303038152906040528051906020012090507fc16026898aa83d1114bc5d2d3cc981d430ffcb8e5854396c6eb4a300298e483e816040518082815260200191505060405180910390a1600154811461014257600080fd5b60016000806101000a81548160ff0219169083151502179055505050565b6001548156fea2646970667358221220546f50a31584e35767c1050a8682481d29670d8a8e31e1b6035075dec698795664736f6c63430006000033",
  "source": "pragma solidity 0.6.0;\n\ncontract Level_1_Brute_Force {\n\n    bool public levelComplete;\n    bytes32 public answer;\n\n    event Guess(bytes32 _guess);\n\n    constructor() public {\n        levelComplete = false;\n        answer = 0x04994f67dc55b09e814ab7ffc8df3686b4afb2bb53e60eae97ef043fe03fb829;\n    }\n\n    function completeLevel(uint8 n) public {\n        bytes32 _guess = keccak256(abi.encodePacked(n));\n        emit Guess(_guess);\n        require(_guess == answer);\n        levelComplete = true;\n    }\n}",
  "sourcePath": "/Users/codeme/code/hack-extropy/src/contracts/Levels/Level_1_Brute_Force.sol",
  "compiler": {
    "name": "solc",
    "version": "0.6.0+commit.26b70077.Emscripten.clang"
  },
  "schemaVersion": "3.4.3",
  "updatedAt": "2021-12-07T12:43:55.070Z",
  "networkType": "ethereum",
  "devdoc": {
    "methods": {}
  },
  "userdoc": {
    "methods": {}
  }
}