{
  "contractName": "Level_2_Reentrancy",
  "abi": [
    {
      "inputs": [],
      "stateMutability": "payable",
      "type": "constructor",
      "payable": true
    },
    {
      "anonymous": false,
      "inputs": [
        {
          "indexed": true,
          "internalType": "address",
          "name": "_from",
          "type": "address"
        },
        {
          "indexed": true,
          "internalType": "address",
          "name": "_to",
          "type": "address"
        },
        {
          "indexed": false,
          "internalType": "uint256",
          "name": "_value",
          "type": "uint256"
        }
      ],
      "name": "Transfer",
      "type": "event"
    },
    {
      "inputs": [],
      "name": "levelComplete",
      "outputs": [
        {
          "internalType": "bool",
          "name": "",
          "type": "bool"
        }
      ],
      "stateMutability": "view",
      "type": "function",
      "constant": true
    },
    {
      "inputs": [],
      "name": "totalSupply",
      "outputs": [
        {
          "internalType": "uint256",
          "name": "",
          "type": "uint256"
        }
      ],
      "stateMutability": "view",
      "type": "function",
      "constant": true
    },
    {
      "inputs": [
        {
          "internalType": "address",
          "name": "_owner",
          "type": "address"
        }
      ],
      "name": "balanceOf",
      "outputs": [
        {
          "internalType": "uint256",
          "name": "balance",
          "type": "uint256"
        }
      ],
      "stateMutability": "view",
      "type": "function",
      "constant": true
    },
    {
      "inputs": [],
      "name": "deposit",
      "outputs": [
        {
          "internalType": "bool",
          "name": "success",
          "type": "bool"
        }
      ],
      "stateMutability": "payable",
      "type": "function",
      "payable": true
    },
    {
      "inputs": [
        {
          "internalType": "uint256",
          "name": "_value",
          "type": "uint256"
        }
      ],
      "name": "withdraw",
      "outputs": [
        {
          "internalType": "bool",
          "name": "success",
          "type": "bool"
        }
      ],
      "stateMutability": "payable",
      "type": "function",
      "payable": true
    },
    {
      "inputs": [
        {
          "internalType": "address",
          "name": "_to",
          "type": "address"
        },
        {
          "internalType": "uint256",
          "name": "_value",
          "type": "uint256"
        }
      ],
      "name": "transfer",
      "outputs": [
        {
          "internalType": "bool",
          "name": "success",
          "type": "bool"
        }
      ],
      "stateMutability": "nonpayable",
      "type": "function"
    },
    {
      "inputs": [],
      "name": "completeLevel",
      "outputs": [],
      "stateMutability": "nonpayable",
      "type": "function"
    }
  ],
  "bytecode": "0x6080604052670de0b6b3a764000034101561001957600080fd5b346000819055506000600160006101000a81548160ff0219169083151502179055506106d48061004a6000396000f3fe6080604052600436106100705760003560e01c80634d193b6d1161004e5780634d193b6d146100fd57806370a082311461012c578063a9059cbb14610191578063d0e30db01461020457610070565b806305c7fe711461007557806318160ddd1461008c5780632e1a7d4d146100b7575b600080fd5b34801561008157600080fd5b5061008a610226565b005b34801561009857600080fd5b506100a16102a3565b6040518082815260200191505060405180910390f35b6100e3600480360360208110156100cd57600080fd5b81019080803590602001909291905050506102a9565b604051808215151515815260200191505060405180910390f35b34801561010957600080fd5b506101126103c7565b604051808215151515815260200191505060405180910390f35b34801561013857600080fd5b5061017b6004803603602081101561014f57600080fd5b81019080803573ffffffffffffffffffffffffffffffffffffffff1690602001909291905050506103da565b6040518082815260200191505060405180910390f35b34801561019d57600080fd5b506101ea600480360360408110156101b457600080fd5b81019080803573ffffffffffffffffffffffffffffffffffffffff16906020019092919080359060200190929190505050610423565b604051808215151515815260200191505060405180910390f35b61020c6105d1565b604051808215151515815260200191505060405180910390f35b600054600260003373ffffffffffffffffffffffffffffffffffffffff1673ffffffffffffffffffffffffffffffffffffffff16815260200190815260200160002054118061027e5750670de0b6b3a7640000600054105b61028757600080fd5b60018060006101000a81548160ff021916908315150217905550565b60005481565b600081600260003373ffffffffffffffffffffffffffffffffffffffff1673ffffffffffffffffffffffffffffffffffffffff1681526020019081526020016000205410156102fb57600090506103c2565b3373ffffffffffffffffffffffffffffffffffffffff168260405180600001905060006040518083038185875af1925050503d8060008114610359576040519150601f19603f3d011682016040523d82523d6000602084013e61035e565b606091505b50505081600260003373ffffffffffffffffffffffffffffffffffffffff1673ffffffffffffffffffffffffffffffffffffffff16815260200190815260200160002060008282540392505081905550816000808282540392505081905550600190505b919050565b600160009054906101000a900460ff1681565b6000600260008373ffffffffffffffffffffffffffffffffffffffff1673ffffffffffffffffffffffffffffffffffffffff168152602001908152602001600020549050919050565b600081600260003373ffffffffffffffffffffffffffffffffffffffff1673ffffffffffffffffffffffffffffffffffffffff16815260200190815260200160002054101561047557600090506105cb565b8182600260008673ffffffffffffffffffffffffffffffffffffffff1673ffffffffffffffffffffffffffffffffffffffff168152602001908152602001600020540110156104c757600090506105cb565b81600260003373ffffffffffffffffffffffffffffffffffffffff1673ffffffffffffffffffffffffffffffffffffffff1681526020019081526020016000206000828254039250508190555081600260008573ffffffffffffffffffffffffffffffffffffffff1673ffffffffffffffffffffffffffffffffffffffff168152602001908152602001600020600082825401925050819055508273ffffffffffffffffffffffffffffffffffffffff163373ffffffffffffffffffffffffffffffffffffffff167fddf252ad1be2c89b69c2b068fc378daa952ba7f163c4a11628f55a4df523b3ef846040518082815260200191505060405180910390a3600190505b92915050565b60003434600260003373ffffffffffffffffffffffffffffffffffffffff1673ffffffffffffffffffffffffffffffffffffffff16815260200190815260200160002054011015610625576000905061069b565b343460005401101561063a576000905061069b565b34600260003373ffffffffffffffffffffffffffffffffffffffff1673ffffffffffffffffffffffffffffffffffffffff16815260200190815260200160002060008282540192505081905550346000808282540192505081905550600190505b9056fea26469706673582212208bd282d74e92898f0e7af873f69afd17894c4ae97c989eb994b0f4ce94e322dc64736f6c63430006000033",
  "source": "pragma solidity 0.6.0;\n\ncontract Level_2_Reentrancy {\n    string constant name = \"Token\";\n    string constant symbol = \"T\";\n    uint8 constant decimals = 18;\n    \n    uint public totalSupply;\n    bool public levelComplete;\n\n    mapping (address => uint256) balances;\n\n    event Transfer(address indexed _from, address indexed _to, uint256 _value);\n\n    constructor () public payable {\n    \trequire(msg.value >= 1 ether);\n        totalSupply = msg.value;\n        levelComplete = false;\n    }\n\n    function balanceOf(address _owner) public view returns (uint256 balance) {\n        return balances[_owner];\n    }\n\n    function deposit() public payable returns (bool success) {\n        if (balances[msg.sender] + msg.value < msg.value) return false;\n        if (totalSupply + msg.value < msg.value) return false;\n        balances[msg.sender] += msg.value;\n        totalSupply += msg.value;\n        return true;\n    }\n\n    function withdraw(uint256 _value) public payable returns (bool success) {\n        if (balances[msg.sender] < _value) return false;\n        msg.sender.call.value(_value)(\"\");\n        balances[msg.sender] -= _value;\n        totalSupply -= _value;\n        return true;\n    }\n\n    function transfer(address _to, uint256 _value) public returns (bool success) {\n        if (balances[msg.sender] < _value) return false;\n        if (balances[_to] + _value < _value) return false;\n        balances[msg.sender] -= _value;\n        balances[_to] += _value;\n        emit Transfer(msg.sender, _to, _value);\n        return true;\n    }\n\n    function completeLevel() external {\n    \trequire(balances[msg.sender] > totalSupply || totalSupply < 1000000000000000000);\n    \tlevelComplete = true;\n    }\n\n}",
  "sourcePath": "/Users/codeme/code/hack-extropy/src/contracts/Levels/Level_2_Reentrancy.sol",
  "compiler": {
    "name": "solc",
    "version": "0.6.0+commit.26b70077.Emscripten.clang"
  },
  "schemaVersion": "3.4.3",
  "updatedAt": "2021-12-07T12:43:55.074Z",
  "networkType": "ethereum",
  "devdoc": {
    "methods": {}
  },
  "userdoc": {
    "methods": {}
  }
}