{
  "contractName": "Level_3_Global_Functions",
  "abi": [
    {
      "inputs": [],
      "name": "levelComplete",
      "outputs": [
        {
          "internalType": "bool",
          "name": "",
          "type": "bool"
        }
      ],
      "stateMutability": "view",
      "type": "function",
      "constant": true
    },
    {
      "inputs": [],
      "name": "totalSupply",
      "outputs": [
        {
          "internalType": "uint256",
          "name": "",
          "type": "uint256"
        }
      ],
      "stateMutability": "view",
      "type": "function",
      "constant": true
    },
    {
      "inputs": [
        {
          "internalType": "bytes32",
          "name": "hash",
          "type": "bytes32"
        }
      ],
      "name": "guessTheFutureHash",
      "outputs": [],
      "stateMutability": "payable",
      "type": "function",
      "payable": true
    },
    {
      "inputs": [],
      "name": "completeLevel",
      "outputs": [],
      "stateMutability": "nonpayable",
      "type": "function"
    }
  ],
  "bytecode": "0x608060405234801561001057600080fd5b50610188806100206000396000f3fe60806040526004361061003f5760003560e01c806305c7fe711461004457806318160ddd1461005b5780634d193b6d14610086578063639b259e146100b5575b600080fd5b34801561005057600080fd5b506100596100e3565b005b34801561006757600080fd5b50610070610125565b6040518082815260200191505060405180910390f35b34801561009257600080fd5b5061009b61012b565b604051808215151515815260200191505060405180910390f35b6100e1600480360360208110156100cb57600080fd5b810190808035906020019092919050505061013e565b005b60015443116100f157600080fd5b6000600154409050806000541461010757600080fd5b6001600360006101000a81548160ff02191690831515021790555050565b60025481565b600360009054906101000a900460ff1681565b80600081905550600143016001819055505056fea26469706673582212206c7542d6e249083908a91ceee318c16c7648753f71eb21fc2ef8181c495b851e64736f6c63430006000033",
  "source": "pragma solidity 0.6.0;\n\ncontract Level_3_Global_Functions {\n    bytes32 guess;\n    uint256 settlementBlockNumber;\n\n    uint public totalSupply;\n    bool public levelComplete;\n\n    function guessTheFutureHash(bytes32 hash) public payable {\n        guess = hash;\n        settlementBlockNumber = block.number + 1;\n    }\n\n    function completeLevel() external {\n    \trequire(block.number > settlementBlockNumber);\n    \tbytes32 answer = blockhash(settlementBlockNumber);\n    \trequire(guess == answer);\n    \tlevelComplete = true;\n    }\n}",
  "sourcePath": "/Users/codeme/code/hack-extropy/src/contracts/Levels/Level_3_Global_Functions.sol",
  "compiler": {
    "name": "solc",
    "version": "0.6.0+commit.26b70077.Emscripten.clang"
  },
  "schemaVersion": "3.4.3",
  "updatedAt": "2021-12-07T12:43:55.077Z",
  "networkType": "ethereum",
  "devdoc": {
    "methods": {}
  },
  "userdoc": {
    "methods": {}
  }
}